:020000040800F2
:1000000000000220C1210008511A0008531A0008FC
:10001000551A0008571A0008591A00080000000075
:10002000000000000000000000000000D14E0008A9
:100030005B1A000800000000714F0008D54F00084F
:1000400011220008112200081122000811220008C4
:1000500011220008112200081122000811220008B4
:1000600011220008112200081122000811220008A4
:100070001122000811220008112200081122000894
:100080005D1A00086D1A0008112200080000000027
:100090000000000000000000000000001122000825
:1000A000112200087D1A0008112200081122000800
:1000B0001122000811220008112200081122000854
:1000C0001122000811220008112200081122000844
:1000D000112200088D1A00089D1A00080000000077
:1000E000112200081122000811220008000000005F
:1000F00000000000000000000000000011220008C5
:10010000000000001122000811220008112200083E
:1001100000000000000000000000000000000000DF
:10012000AD1A0008BD1A0008CD1A000811220008F7
:100130001122000800000000000000000000000084
:100140000000000000000000000000001122000874
:1001500011220008DD1A0008ED1A0008FD1A000837
:100160001122000811220008000000000000000019
:10017000000000000000000000000000000000007F
:100180000000000011220008000000000000000034
:080190001122000811220008F1
:1001C00010B5054C237833B9044B13B10448AFF391
:1001D00000800123237010BDC00900200000000032
:1001E00084E3000808B5034B1BB103490348AFF390
:1001F000008008BD00000000C409002084E300085E
:1002000081F0004102E000BF83F0004330B54FEAC7
:1002100041044FEA430594EA050F08BF90EA020F34
:100220001FBF54EA000C55EA020C7FEA645C7FEAC7
:10023000655C00F0E2804FEA5454D4EB5555B8BFEA
:100240006D420CDD2C4480EA020281EA030382EA5B
:10025000000083EA010180EA020281EA0303362DED
:1002600088BF30BD11F0004F4FEA01314FF4801CC0
:100270004CEA113102D0404261EB410113F0004FD2
:100280004FEA03334CEA133302D0524263EB430389
:1002900094EA050F00F0A780A4F10104D5F1200E27
:1002A0000DDB02FA0EFC22FA05F2801841F1000182
:1002B00003FA0EF2801843FA05F359410EE0A5F156
:1002C00020050EF1200E012A03FA0EFC28BF4CF087
:1002D000020C43FA05F3C01851EBE37101F000453D
:1002E00007D54FF0000EDCF1000C7EEB00006EEB4A
:1002F0000101B1F5801F1BD3B1F5001F0CD34908D4
:100300005FEA30004FEA3C0C04F101044FEA44522A
:1003100012F5800F80F09A80BCF1004F08BF5FEAB1
:10032000500C50F1000041EB045141EA050130BD91
:100330005FEA4C0C404141EB0101013C28BFB1F5A3
:10034000801FE9D291F0000F04BF01460020B1FAEE
:1003500081F308BF2033A3F10B03B3F120020CDAC1
:100360000C3208DD02F1140CC2F10C0201FA0CF09F
:1003700021FA02F10CE002F11402D8BFC2F1200C04
:1003800001FA02F120FA0CFCDCBF41EA0C019040BA
:10039000E41AA2BF01EB0451294330BD6FEA040403
:1003A0001F3C1CDA0C340EDC04F11404C4F12002EE
:1003B00020FA04F001FA02F340EA030021FA04F300
:1003C00045EA030130BDC4F10C04C4F1200220FA57
:1003D00002F001FA04F340EA0300294630BD21FA95
:1003E00004F0294630BD94F0000F83F4801306BF5B
:1003F00081F480110134013D4EE77FEA645C18BF4F
:100400007FEA655C29D094EA050F08BF90EA020FE5
:1004100005D054EA000C04BF1946104630BD91EADD
:10042000030F1EBF0021002030BD5FEA545C05D1E0
:100430004000494128BF41F0004130BD14F580041F
:100440003CBF01F5801130BD01F0004545F0FE4193
:1004500041F470014FF0000030BD7FEA645C1ABFC8
:10046000194610467FEA655C1CBF0B46024650EAFF
:10047000013406BF52EA033591EA030F41F400212B
:1004800030BD00BF90F0000F04BF0021704730B5B1
:100490004FF4806404F132044FF000054FF0000186
:1004A00050E700BF90F0000F04BF0021704730B547
:1004B0004FF4806404F1320410F0004548BF40421C
:1004C0004FF000013EE700BF42004FEAE2014FEA71
:1004D00031014FEA02701FBF12F07F4393F07F4F4C
:1004E00081F06051704732F07F4208BF704793F04F
:1004F0007F4F04BF41F40021704730B54FF4607462
:1005000001F0004521F000411CE700BF50EA010264
:1005100008BF704730B54FF000050AE050EA01020D
:1005200008BF704730B511F0004502D5404261EB7D
:1005300041014FF4806404F132045FEA915C3FF4BE
:10054000D8AE4FF003025FEADC0C18BF03325FEA5B
:10055000DC0C18BF033202EBDC02C2F1200300FA0C
:1005600003FC20FA02F001FA03FE40EA0E0021FA31
:1005700002F11444BDE600BF70B54FF0FF0C4CF41F
:10058000E06C1CEA11541DBF1CEA135594EA0C0FD1
:1005900095EA0C0F00F0DEF82C4481EA030621EA0C
:1005A0004C5123EA4C5350EA013518BF52EA033547
:1005B00041F4801143F4801338D0A0FB02CE4FF0F9
:1005C0000005E1FB02E506F00042E0FB03E54FF029
:1005D0000006E1FB03569CF0000F18BF4EF0010E21
:1005E000A4F1FF04B6F5007F64F5407404D25FEA1D
:1005F0004E0E6D4146EB060642EAC62141EA5551D0
:100600004FEAC52040EA5E504FEACE2EB4F1FD0C11
:1006100088BFBCF5E06F1ED8BEF1004F08BF5FEA8F
:10062000500E50F1000041EB045170BD06F0004641
:1006300046EA010140EA020081EA0301B4EB5C04EE
:10064000C2BFD4EB0C0541EA045170BD41F48011E6
:100650004FF0000E013C00F3AB8014F1360FDEBF0B
:10066000002001F0004170BDC4F10004203C35DAE7
:100670000C341BDC04F11404C4F1200500FA05F36A
:1006800020FA04F001FA05F240EA020001F000420B
:1006900021F0004110EBD37021FA04F642EB060181
:1006A0005EEA430E08BF20EAD37070BDC4F10C04AB
:1006B000C4F1200500FA04F320FA05F001FA04F26F
:1006C00040EA020001F0004110EBD37041F100015B
:1006D0005EEA430E08BF20EAD37070BDC4F1200566
:1006E00000FA05F24EEA020E20FA04F301FA05F2CE
:1006F00043EA020321FA04F001F0004121FA04F276
:1007000020EA020000EBD3705EEA430E08BF20EA45
:10071000D37070BD94F0000F0FD101F0004640007F
:1007200041EB010111F4801F08BF013CF7D041EA01
:10073000060195F0000F18BF704703F00046520005
:1007400043EB030313F4801F08BF013DF7D043EAD6
:100750000603704794EA0C0F0CEA135518BF95EA8C
:100760000C0F0CD050EA410618BF52EA4306D1D113
:1007700081EA030101F000414FF0000070BD50EA32
:10078000410606BF1046194652EA430619D094EABC
:100790000C0F02D150EA013613D195EA0C0F05D1A6
:1007A00052EA03361CBF104619460AD181EA0301FA
:1007B00001F0004141F0FE4141F470014FF00000B2
:1007C00070BD41F0FE4141F4780170BD70B54FF04D
:1007D000FF0C4CF4E06C1CEA11541DBF1CEA1355CD
:1007E00094EA0C0F95EA0C0F00F0A7F8A4EB0504AF
:1007F00081EA030E52EA03354FEA013100F08880A6
:100800004FEA03334FF0805545EA131343EA12636E
:100810004FEA022245EA111545EA10654FEA002623
:100820000EF000419D4208BF964244F1FD0404F5DC
:10083000407402D25B084FEA3202B61A65EB030538
:100840005B084FEA32024FF480104FF4002CB6EBF5
:10085000020E75EB030E22BFB61A754640EA0C0075
:100860005B084FEA3202B6EB020E75EB030E22BFB5
:10087000B61A754640EA5C005B084FEA3202B6EBF6
:10088000020E75EB030E22BFB61A754640EA9C00B5
:100890005B084FEA3202B6EB020E75EB030E22BF85
:1008A000B61A754640EADC0055EA060E18D04FEA43
:1008B000051545EA16754FEA06164FEAC30343EAE3
:1008C00052734FEAC2025FEA1C1CC0D111F4801FB0
:1008D0000BD141EA00014FF000004FF0004CB6E7A9
:1008E00011F4801F04BF01430020B4F1FD0C88BF48
:1008F000BCF5E06F3FF6AFAEB5EB030C04BFB6EB53
:10090000020C5FEA500C50F1000041EB045170BD45
:100910000EF0004E4EEA113114EB5C04C2BFD4EB72
:100920000C0541EA045170BD41F480114FF0000EF6
:10093000013C90E645EA060E8DE60CEA135594EA72
:100940000C0F08BF95EA0C0F3FF43BAF94EA0C0F75
:100950000AD150EA01347FF434AF95EA0C0F7FF4EA
:1009600025AF104619462CE795EA0C0F06D152EA3E
:1009700003353FF4FDAE1046194622E750EA410622
:1009800018BF52EA43067FF4C5AE50EA41047FF433
:100990000DAF52EA43057FF4EBAE12E780F0004062
:1009A00002E000BF81F0004142001FBF5FEA410347
:1009B00092EA030F7FEA226C7FEA236C6AD04FEA47
:1009C0001262D2EB1363C1BFD2184140484041408C
:1009D000B8BF5B42192B88BF704710F0004F40F43E
:1009E000000020F07F4018BF404211F0004F41F45A
:1009F000000121F07F4118BF494292EA030F3FD026
:100A0000A2F1010241FA03FC10EB0C00C3F1200338
:100A100001FA03F100F0004302D5494260EB4000C7
:100A2000B0F5000F13D3B0F1807F06D340084FEA32
:100A3000310102F10102FE2A51D2B1F1004F40EB27
:100A4000C25008BF20F0010040EA0300704749008F
:100A500040EB0000013A28BFB0F5000FEDD2B0FA2C
:100A600080FCACF1080CB2EB0C0200FA0CF0AABF4F
:100A700000EBC25052421843BCBFD04018437047ED
:100A800092F0000F81F4000106BF80F400000132F3
:100A9000013BB5E74FEA41037FEA226C18BF7FEACA
:100AA000236C21D092EA030F04D092F0000F08BF0C
:100AB0000846704790EA010F1CBF0020704712F0F3
:100AC0007F4F04D1400028BF40F00040704712F132
:100AD00000723CBF00F50000704700F0004343F097
:100AE000FE4040F4000070477FEA226216BF0846CD
:100AF0007FEA23630146420206BF5FEA412390EA90
:100B0000010F40F4800070474FF0000304E000BF85
:100B100010F0004348BF40425FEA000C08BF704736
:100B200043F0964301464FF000001CE050EA0102FA
:100B300008BF70474FF000030AE000BF50EA01020F
:100B400008BF704711F0004302D5404261EB4101FC
:100B50005FEA010C02BF84460146002043F0B64321
:100B600008BFA3F18053A3F50003BCFA8CF2083A46
:100B7000A3EBC25310DB01FA02FC634400FA02FC4F
:100B8000C2F12002BCF1004F20FA02F243EB020056
:100B900008BF20F00100704702F1200201FA02FCB8
:100BA000C2F1200250EA4C0021FA02F243EB0200AB
:100BB00008BF20EADC70704753B94AB9002908BF62
:100BC00000281CBF4FF0FF314FF0FF3000F074B928
:100BD000ADF1080C6DE904CE00F006F8DDF804E094
:100BE000DDE9022304B070472DE9F047089D044673
:100BF0008E46002B4DD18A42944669D9B2FA82F2D0
:100C000052B101FA02F3C2F1200120FA01F10CFA0B
:100C100002FC41EA030E94404FEA1C48210CBEFB43
:100C2000F8F61FFA8CF708FB16E341EA034306FBCC
:100C300007F199420AD91CEB030306F1FF3080F05B
:100C40001F81994240F21C81023E63445B1AA4B2A8
:100C5000B3FBF8F008FB103344EA034400FB07F74A
:100C6000A7420AD91CEB040400F1FF3380F00A818B
:100C7000A74240F207816444023840EA0640E41B80
:100C800000261DB1D4400023C5E900433146BDE82C
:100C9000F0878B4209D9002D00F0EF800026C5E9CE
:100CA000000130463146BDE8F087B3FA83F6002EE6
:100CB0004AD18B4202D3824200F2F980841A61EB5E
:100CC000030301209E46002DE0D0C5E9004EDDE77C
:100CD00002B9FFDEB2FA82F2002A40F09280A1EB64
:100CE0000C014FEA1C471FFA8CFE0126200CB1FBB9
:100CF000F7F307FB131140EA01410EFB03F08842B2
:100D000008D91CEB010103F1FF3802D2884200F23E
:100D1000CB804346091AA4B2B1FBF7F007FB1011D0
:100D200044EA01440EFB00FEA64508D91CEB04046E
:100D300000F1FF3102D2A64500F2BB800846A4EBC9
:100D40000E0440EA03409CE7C6F12007B34022FAB4
:100D500007FC4CEA030C20FA07F401FA06F31C43E3
:100D6000F9404FEA1C4900FA06F3B1FBF9F8200CF0
:100D70001FFA8CFE09FB181140EA014108FB0EF036
:100D8000884202FA06F20BD91CEB010108F1FF3A86
:100D900080F08880884240F28580A8F10208614492
:100DA000091AA4B2B1FBF9F009FB101144EA0141A0
:100DB00000FB0EFE8E4508D91CEB010100F1FF344B
:100DC0006CD28E456AD90238614440EA0840A0FBE3
:100DD0000294A1EB0E01A142C846A64656D353D0B9
:100DE0005DB1B3EB080261EB0E0101FA07F722FADD
:100DF00006F3F1401F43C5E9007100263146BDE806
:100E0000F087C2F12003D8400CFA02FC21FA03F368
:100E1000914001434FEA1C471FFA8CFEB3FBF7F0E9
:100E200007FB10360B0C43EA064300FB0EF69E420E
:100E300004FA02F408D91CEB030300F1FF382FD2A7
:100E40009E422DD9023863449B1B89B2B3FBF7F64F
:100E500007FB163341EA034106FB0EF38B4208D928
:100E60001CEB010106F1FF3816D28B4214D9023E69
:100E70006144C91A46EA004638E72E46284605E787
:100E80000646E3E61846F8E64B45A9D2B9EB020858
:100E900064EB0C0E0138A3E74646EAE7204694E7E8
:100EA0004046D1E7D0467BE7023B614432E730461B
:100EB00009E76444023842E7704700BF844641EACC
:100EC000000313F003036DD1403A41D351F8043BC2
:100ED00040F8043B51F8043B40F8043B51F8043B14
:100EE00040F8043B51F8043B40F8043B51F8043B04
:100EF00040F8043B51F8043B40F8043B51F8043BF4
:100F000040F8043B51F8043B40F8043B51F8043BE3
:100F100040F8043B51F8043B40F8043B51F8043BD3
:100F200040F8043B51F8043B40F8043B51F8043BC3
:100F300040F8043B51F8043B40F8043B51F8043BB3
:100F400040F8043B51F8043B40F8043B403ABDD222
:100F5000303211D351F8043B40F8043B51F8043BC4
:100F600040F8043B51F8043B40F8043B51F8043B83
:100F700040F8043B103AEDD20C3205D351F8043B53
:100F800040F8043B043AF9D2043208D0D2071CBF1F
:100F900011F8013B00F8013B01D30B880380604648
:100FA000704700BF082A13D38B078DD010F00303BE
:100FB0008AD0C3F10403D21ADB071CBF11F8013B2E
:100FC00000F8013B80D331F8023B20F8023B7BE77D
:100FD000043AD9D3013A11F8013B00F8013BF9D2A8
:100FE0000B7803704B7843708B7883706046704742
:100FF00001F0FF01102A2BDB10F0070F08D010F8CA
:10100000013B013A8B422DD010F0070F42B3F6D1CD
:10101000F0B441EA012141EA014122F007047FF0E6
:1010200000070023F0E80256083C85EA010586EA3D
:10103000010685FA47F5A3FA87F586FA47F6A5FA79
:1010400087F68EB9EED1F0BC01F0FF0102F0070285
:1010500032B110F8013B013A83EA010313B1F8D130
:101060000020704701387047002D06BF3546033811
:10107000073815F0010F07D1013015F4807F02BF4A
:10108000013015F4C03F0130F0BC0138704700BF9B
:101090000000000000000000000000000000000050
:1010A0000000000000000000000000000000000040
:1010B0000000000000000000000000000000000030
:1010C00090F800F06DE9024520F007016FF0000C88
:1010D00010F0070491F820F040F049804FF0000430
:1010E0006FF00700D1E9002391F840F000F108000B
:1010F00082FA4CF2A4FA8CF283FA4CF3A2FA8CF343
:101100004BBBD1E9022382FA4CF200F10800A4FAA9
:101110008CF283FA4CF3A2FA8CF3E3B9D1E90423FD
:1011200082FA4CF200F10800A4FA8CF283FA4CF334
:10113000A2FA8CF37BB9D1E9062301F1200182FAEE
:101140004CF200F10800A4FA8CF283FA4CF3A2FAF4
:101150008CF3002BC6D0002A04BF04301A4612BA02
:10116000B2FA82F2FDE8024500EBD2007047D1E905
:10117000002304F00305C4F100004FEAC50514F094
:10118000040F91F840F00CFA05F562EA05021CBF65
:1011900063EA050362464FF00004A9E74FF0FF3C05
:1011A00006E000BF4FF0010C02E000BF4FF0010C61
:1011B0004DF804CD4FEA410C7FEA6C5C4FEA430CDA
:1011C00018BF7FEA6C5C1BD001B050EA410C0CBF29
:1011D00052EA430C91EA030F02BF90EA020F00208B
:1011E000704710F1000F91EA030F58BF994208BFF2
:1011F00090422CBFD8176FEAE37040F001007047AF
:101200004FEA410C7FEA6C5C02D150EA013C07D105
:101210004FEA430C7FEA6C5CD6D152EA033CD3D050
:101220005DF8040B704700BF8446104662468C464A
:101230001946634600E000BF01B5FFF7B7FF00287D
:1012400048BF10F1000F01BD4DF808EDFFF7F4FFA6
:101250000CBF012000205DF808FB00BF4DF808ED31
:10126000FFF7EAFF34BF012000205DF808FB00BF54
:101270004DF808EDFFF7E0FF94BF012000205DF876
:1012800008FB00BF4DF808EDFFF7CEFF94BF01202B
:1012900000205DF808FB00BF4DF808EDFFF7C4FF24
:1012A00034BF012000205DF808FB00BF4FEA410C6D
:1012B0007FEA6C5C02D150EA013C0AD14FEA430C50
:1012C0007FEA6C5C02D152EA033C02D14FF000008D
:1012D00070474FF0010070474FEA410212F50012CB
:1012E00015D211D56FF47873B3EB625212D94FEA6D
:1012F000C12343F0004343EA505311F0004F23FA57
:1013000002F018BF404270474FF00000704750EAAB
:10131000013005D111F0004008BF6FF00040704768
:101320004FF00000704700BF00B585B00023009368
:101330000193029303931548154A02604FF48032DB
:10134000426083600361037680F82030C362114AF3
:101350008262C3600123C36180F83030436101F0D1
:1013600033F860B900230093012201920293694689
:10137000064801F055F828B905B05DF804FB00F007
:1013800079FAEFE700F076FAF6E700BFDC09002013
:10139000002001400100000F30B589B00023039305
:1013A0000493059306930793026803F1804303F5C2
:1013B00090339A4201D009B030BD04460025019512
:1013C00003F58C335A6C42F480725A645A6C02F4FE
:1013D00080720192019A02951A6B42F001021A631F
:1013E0001B6B03F001030293029B0123039303236E
:1013F000049303A9104801F0A7FB1048104B0360A9
:1014000045608560C5604FF4806303614FF40063FD
:1014100043614FF4005383614FF48073C3610562ED
:10142000456201F0ABF918B9044BA3639C63C2E7B2
:1014300000F020FAF8E700BF00000240240A002074
:101440001064024010B582B000240094264B1A6B41
:1014500042F480021A631A6B02F480020092009A2E
:1014600001941A6B42F400121A631B6B03F400130D
:101470000193019B22460521102001F0B9F81020AC
:1014800001F0EEF822460521112001F0B1F81120FB
:1014900001F0E6F822460521382001F0A9F83820AD
:1014A00001F0DEF822460521392001F0A1F83920AB
:1014B00001F0D6F8224605213A2001F099F83A20A9
:1014C00001F0CEF822460521452001F091F8452093
:1014D00001F0C6F822460521462001F089F8462091
:1014E00001F0BEF802B010BD00380240034B0360AB
:1014F000034B0B6080231360704700BF900C0020EB
:10150000900A002010B596B01B4C0DF13C0CA6467D
:10151000BEE80F00ACE80F009EE807008CE807006B
:1015200000210FA803F006FC144B18600DF1200CED
:1015300004F11C0EBEE80F00ACE80F009EE80700A7
:101540008CE80700002108A803F0F4FB0C4B18609E
:101550000DF1040E04F1380CBCE80F00AEE80F00EA
:101560009CE807008EE80700002101A803F0E2FBD9
:10157000044B186016B010BDA0E300088C0A0020D0
:10158000840A0020880A0020F0B589B00024039462
:1015900004940594069407940094214B1A6B42F02E
:1015A00080021A631A6B02F080020092009A019482
:1015B0001A6B42F001021A631A6B02F001020192E7
:1015C000019A02941A6B42F002021A631B6B03F039
:1015D00002030293029B134F22468021384601F0FA
:1015E00093FB114D01224FF20631284601F08CFB8E
:1015F00080230393012604960594069403A9384694
:1016000001F0A2FA4FF206330393112304930596D7
:101610000323069303A9284601F096FA09B0F0BD0A
:1016200000380240000002400004024008B50B48A8
:101630000B4B03600B4B436000238360C3604FF48C
:101640008042026143618361C361036201F050FD26
:1016500000B908BD00F00EF9FBE700BFE40C002064
:1016600000540040801A060008B50B480B4B03607D
:101670000B4B436000238360C3604FF480420261E0
:1016800043618361C361036201F032FD00B908BDAB
:1016900000F0F0F8FBE700BF380D002000580040D4
:1016A000801A060008B50B480B4B03600B4B4360D8
:1016B00000238360C3604FF4804202614361836111
:1016C000C361036201F014FD00B908BD00F0D2F857
:1016D000FBE700BF8C0D0020005C0040801A060074
:1016E0002DE9F0438DB000230793089309930A93E3
:1016F0000B930368534A934208D0534A93422AD02B
:10170000524A93425FD00DB0BDE8F08300250095AA
:101710004F4C236B43F002032363236B03F002035C
:101720000093009BC023079312230893012309937E
:1017300003230A9304230B9307A9464801F004FAF4
:101740000195236C43F400132364236C03F400130A
:101750000193019BD7E7002502953D4C236B43F095
:1017600002032363236B03F002030293029B4FF4F3
:10177000806307934FF01209CDF820904FF00108D5
:10178000CDF8248003270A9704230B93314E07A931
:10179000304601F0D9F908230793CDF82090CDF811
:1017A00024800A9709230B9307A9304601F0CCF94E
:1017B0000395236C43F480032364236C03F48003B8
:1017C0000393039B9FE700250495214C236B43F073
:1017D00001032363236B03F001030493049B05952A
:1017E000236B43F002032363236B03F0020305938F
:1017F000059B4FF4807307934FF01208CDF82080BB
:101800000127099703260A9604230B9307A9124878
:1018100001F09AF910230793CDF8208009970A96D2
:1018200009230B9307A90B4801F08EF90695236C49
:1018300043F400032364236C03F400030693069B24
:1018400061E700BF0054004000580040005C0040C9
:1018500000380240000402400000024008B502685F
:10186000034B9A4200D008BD00F0EEFCFBE700BF3E
:101870000044014072B6FEE700B595B03022002169
:1018800008A806F05FFD00230393049305930693D5
:10189000079301931F4A116C41F080511164126C3F
:1018A00002F080520192019A02931B4B1A6842F493
:1018B00040421A601B6803F440430293029B0123D9
:1018C00008934FF48033099302230E934FF4800260
:1018D0000F92062210926422119212930423139302
:1018E00008A801F05FFE88B90F2303930223049335
:1018F000002305934FF4805206920793032103A817
:1019000002F09EF820B915B05DF804FBFFF7B2FFB6
:10191000FFF7B0FF003802400070004008B500F04B
:1019200079FCFFF7A9FFFFF72FFEFFF78BFD00F013
:1019300093FAFFF77BFEFFF797FEFFF7B3FE00F089
:10194000A7FA00F0BFFAFFF7EFFC00F003FA00F08F
:1019500041FA00F043F906F0E3FA0122802104483D
:1019600001F0D2F9FFF7CEFD03F0DFF9FEE700BF8B
:101970000000024000B583B0002200920D4B596C6C
:1019800041F480415964596C01F4804100910099FF
:101990000192196C41F0805119641B6C03F0805363
:1019A0000193019B0F216FF0010000F021FE03B0B5
:1019B0005DF804FB0038024030B589B005460024CC
:1019C00001941E4B5A6C42F400325A645B6C03F46F
:1019D00000330193019B02A903A802F007F902F06A
:1019E000F5F803461648A0FB03239B0C013B154862
:1019F000154A026040F2E732C260436004618460CD
:101A0000846102F03DFB044610B1204609B030BDB0
:101A10000C4802F0F3F904460028F6D1192000F032
:101A20001FFE0F2D01D90124EFE7002229461920BE
:101A300000F0DEFD054B1D60E7E700BF0038024007
:101A400083DE1B43E00D002000440140080000201D
:101A5000FEE7FEE7FEE7FEE7FEE7704708B502484F
:101A600000F084FF08BD00BFC40F002008B5024885
:101A700000F07CFF08BD00BF2410002008B502481C
:101A800002F0FCF908BD00BFE00D002008B50248D7
:101A900002F00AFF08BD00BF4411002008B502484B
:101AA00002F002FF08BD00BF8C11002008B50248FB
:101AB00000F05CFF08BD00BF240A002008B5024802
:101AC00000F054FF08BD00BF8410002008B5024894
:101AD00000F04CFF08BD00BF040F002008B502480D
:101AE00000F044FF08BD00BFE410002008B5024824
:101AF00000F03CFF08BD00BF640F002008B502489D
:101B000002F0D2FE08BD00BFD411002001207047B2
:101B100008B506F0EDFB162303604FF0FF3008BD5B
:101B200008B54FF0FF31FFF7F3FFFEE770B50C4645
:101B30001646002506E0AFF30080214601F8010BB0
:101B400001350C46B542F6DB304670BD70B50C462B
:101B50001646002504E014F8010BAFF300800135B0
:101B6000B542F8DB304670BD4FF0FF3070474FF4A0
:101B700000534B60002070470120704700207047E1
:101B800010B503460C4A0D490D48006840B10C4899
:101B900000680344521A934206D8094A136010BDE4
:101BA0000748084C0460F2E706F0A2FB0C23036030
:101BB0004FF0FF30F3E700BF0000022000100000EC
:101BC000280E002080A50020034AD2F8883043F474
:101BD0007003C2F88830704700ED00E000B587B0B0
:101BE00000230293039304930593009301931548F4
:101BF0004FF0804202606322426083604FF0FF3208
:101C0000C2600361836102F03BFA90B94FF48053E4
:101C1000029302A90B4802F038FB68B90023009335
:101C200001936946074802F0AFFB40B907B05DF881
:101C300004FBFFF71FFEE9E7FFF71CFEEEE7FFF7E7
:101C400019FEF3E72C0E00200368B3F1804F00D09B
:101C5000704782B000230193054B1A6C42F00102D9
:101C60001A641B6C03F001030193019B02B07047DF
:101C70000038024082B00368104A934204D0104AF0
:101C800093420ED002B07047002300930D4B1A6CA4
:101C900042F002021A641B6C03F002030093009BE3
:101CA000F0E700230193074B1A6C42F008021A6414
:101CB0001B6C03F008030193019BE3E70004004061
:101CC000000C00400038024000B589B000230393A7
:101CD000049305930693079303681A4A934205D029
:101CE000194A934218D009B05DF804FB0023019310
:101CF000164B1A6B42F001021A631B6B03F00103CF
:101D00000193019B4023039302230493079303A9A8
:101D10000F4800F019FFE6E7002302930B4B1A6B04
:101D200042F001021A631B6B03F001030293029B52
:101D3000022303930493079303A9054800F004FFCB
:101D4000D1E700BF00040040000C00400038024012
:101D50000000024000B58BB0002308930993019363
:101D60000293039304930593069307931748184A25
:101D70000260436083604FF6FF72C260036183615B
:101D800002F0AAF9C0B900230893099308A90F48E3
:101D900002F0FAFA98B960230193002202920392AA
:101DA000059201A9094802F0F5F958B90748FFF76B
:101DB0008BFF0BB05DF804FBFFF75CFDE3E7FFF77B
:101DC00059FDE8E7FFF756FDF0E700BF740E00206D
:101DD0000004004000B58BB00023089309930193E1
:101DE0000293039304930593069307931848194AA3
:101DF0000260436083604FF0FF32C2600361836121
:101E000002F06AF9D0B900230893099308A9104891
:101E100002F0BAFAA8B96023019300230293039356
:101E2000059304220DEB0201094802F0B3F958B9F9
:101E30000748FFF749FF0BB05DF804FBFFF71AFDF9
:101E4000E1E7FFF717FDE6E7FFF714FDF0E700BF56
:101E5000BC0E0020000C004008B50A480A4B036085
:101E60000A4B436000238360C36003610C2242611C
:101E70008361C36102F0BEFB00B908BDFFF7FAFC45
:101E8000FBE700BF441100200010014040420F005A
:101E900008B50A480A4B03604FF4612343600023EE
:101EA0008360C36003610C2242618361C36102F0FD
:101EB000A1FB00B908BDFFF7DDFCFBE78C1100209A
:101EC0000044004008B50A480A4B03604FF4E13370
:101ED000436000238360C36003610C22426183611D
:101EE000C36102F087FB00B908BDFFF7C3FCFBE745
:101EF000D41100200014014030B58DB004460023F9
:101F00000793089309930A930B9303689B4A9342A0
:101F100008D09B4A934269D09A4A934200F0C98004
:101F20000DB030BD00250195974B5A6C42F0100260
:101F30005A645A6C02F010020192019A02951A6BCF
:101F400042F001021A631B6B03F001030293029B30
:101F50004FF4C06307930223089303230A930723D4
:101F60000B9307A9894800F0EFFD8948894B03606E
:101F70004FF0006343608560C5604FF48063036188
:101F800045618561C5614FF480330362456200F0AD
:101F9000F5FB28BB7E4BE3639C637F487F4B03606C
:101FA0004FF000634360402383600023C3604FF41D
:101FB0008062026143618361C3614FF480320262D7
:101FC000436200F0DBFB70B9734BA3639C63002298
:101FD0000521252000F00CFB252000F041FB9FE7A8
:101FE000FFF748FCD6E7FFF745FCEDE70025039532
:101FF000654B1A6C42F400321A641A6C02F4003217
:102000000392039A04951A6B42F001021A631B6B48
:1020100003F001030493049B0C230793022308930A
:1020200003230A9307230B9307A9584800F08CFD5C
:102030005B485C4B03604FF0006343608560C560A4
:102040004FF48063036145618561C5614FF440339E
:102050000362456200F092FB28BB514BE3639C6333
:102060005148524B03604FF000634360402383604C
:102070000023C3604FF48062026143618361C361E6
:102080004FF440320262436200F078FB70B9464B75
:10209000A3639C6300220521262000F0A9FA2620D4
:1020A00000F0DEFA3CE7FFF7E5FBD6E7FFF7E2FBDF
:1020B000EDE700250595344B5A6C42F020025A6436
:1020C0005A6C02F020020592059A06951A6B42F0AE
:1020D00001021A631B6B03F001030693069B4FF486
:1020E000C05307930223089303230A9308230B93F7
:1020F00007A9264800F028FD2D482E4B03604FF01D
:102100002063436040238360C5604FF480630361B4
:1021100045618561C5614FF440330362456200F05B
:102120002DFB20BB224BA3639C632348234B0360FE
:102130004FF02063436000238360C3604FF48062EC
:10214000026143618361C3614FF4403202624362C2
:1021500000F014FB70B9184BE3639C630022052167
:10216000472000F045FA472000F07AFAD8E6FFF75A
:1021700081FBD7E7FFF77EFBEDE700BF00100140D2
:1021800000440040001401400038024000000240BA
:10219000040F002040640240640F0020B864024035
:1021A000C40F00208860024024100020A06002407C
:1021B000E4100020A0640240841000202864024043
:1021C000DFF834D0FFF700FD0C480D490D4A00231D
:1021D00002E0D458C4500433C4188C42F9D30A4ADC
:1021E0000A4C002301E013600432A242FBD306F044
:1021F00085F8FFF793FB70470000022000000020E5
:10220000C0090020D4EB0008C009002080A50020F0
:10221000FEE7000008B50B4B1A6842F400721A6022
:102220001A6842F480621A601A6842F480721A6076
:10223000032000F0CBF90520FFF7BEFBFFF79AFB68
:10224000002008BD003C0240034A1168034B1B7884
:102250000B441360704700BF1C12002004000020D4
:10226000014B1868704700BF1C12002038B50446A7
:10227000FFF7F6FF0546B4F1FF3F02D0044B1B7891
:102280001C44FFF7EDFF401BA042FAD338BD00BF4E
:10229000040000204A4B5A6822F440325A605A68BF
:1022A00041680A435A600268536823F4807353609C
:1022B00002685368016943EA012353600268536866
:1022C00023F0407353600268536881680B43536086
:1022D0000268936823F40063936002689368C1689E
:1022E0000B439360826A374B9A4257D002689368D7
:1022F00023F07063936002689368816A0B43936074
:102300000268936823F04053936002689368C16A3F
:102310000B4393600268936823F0020393600268A2
:102320009368017E43EA4103936090F82030002BCC
:102330003FD00268536843F40063536002685368F7
:1023400023F46043536001684B68426A013A43EAF0
:1023500042334B600268D36A23F47003D36201688E
:10236000CB6AC269013A43EA0253CB6202689368BE
:1023700023F4007393600268936890F8301043EA86
:10238000412393600268936823F48063936002683A
:102390009368416943EA81239360704702689368B8
:1023A00023F0706393600268936823F04053936056
:1023B000B0E70268536823F400635360CAE700BFC4
:1023C000002301400100000F38B310B50446036C30
:1023D00043B1236C13F0100F0BD00120002384F8BD
:1023E0003C3010BDFEF7D8FF0023636484F83C3016
:1023F000EFE7236C23F4885323F0020343F0020336
:1024000023642046FFF746FF00206064236C23F01E
:10241000030343F001032364E0E701207047000059
:1024200030B482B00023019390F83C30012B00F0CF
:10243000C080012380F83C300B68092B41D9046827
:10244000E2689BB203EB43031E3B4FF0070C0CFA10
:1024500003F322EA0303E3600468E2680B8803EBFA
:1024600043031E3B8D6805FA03F31343E3604B6897
:10247000062B3DD80468626B03EB8303053B4FF0EA
:102480001F0C0CFA03F322EA030363630468626B14
:102490004B6803EB8303053BB1F800C00CFA03F370
:1024A000134363630268444B9A4251D00268424B23
:1024B0009A425AD0002380F83C30184602B030BC13
:1024C0007047046822699BB203EB43034FF0070C8B
:1024D0000CFA03F322EA03032361046822690B88E0
:1024E00003EB43038D6805FA03F313432361BEE74F
:1024F0000C2B16D805682A6B03EB8303233B1F24A0
:1025000004FA03F322EA03032B6305682A6B4B6882
:1025100003EB8303233B0C8804FA03F313432B637D
:10252000C0E70568EA6A03EB8303413B1F2404FA12
:1025300003F322EA0303EB620568EA6A4B6803EBE4
:102540008303413B0C8804FA03F31343EB62A9E7CE
:102550000B68122BAAD1194B5A6822F400025A6058
:102560005A6842F480025A60A0E70B68144A93420A
:1025700001D0112B9ED1114B5A6822F480025A606F
:102580005A6842F400025A600A680D4B9A4291D18F
:102590000C4B1B680C4AA2FB03239B0C03EB83032D
:1025A0005B000193019B002B84D0019B013B0193B5
:1025B000F8E7022082E700BF00200140002301402D
:1025C000120000100000002083DE1B43074AD3687E
:1025D00023F4E0631B041B0C000200F4E0600343DF
:1025E00043F0BF6343F40033D360704700ED00E075
:1025F00000B5194BDB68C3F30223C3F1070CBCF130
:10260000040F28BF4FF0040C03F1040EBEF1060FB7
:1026100018D9033B4FF0FF3E0EFA0CFC21EA0C01E7
:1026200099400EFA03F322EA0303194300280BDB57
:102630000901C9B200F1604000F5614080F8001363
:102640005DF804FB0023E5E700F00F000901C9B2C3
:10265000024B1954F4E700BF00ED00E014ED00E078
:10266000002807DB00F01F02400901239340024AC3
:1026700042F82030704700BF00E100E030B4056848
:102680002C6824F480242C60046863608368402BE9
:1026900005D0036899600368DA6030BC704703684E
:1026A0009A600368D960F8E710B40368D9B21039AA
:1026B0000C4AA2FB014212090B4CA25CC2655F29C5
:1026C00009D923F47F7323F0030304338365806DFA
:1026D0005DF8044B704723F47F7323F00303836595
:1026E000F5E700BFABAAAAAA34E40008836A8269AE
:1026F00092B9012B0AD0022B02D00BB100207047F7
:10270000C36A13F0807F28D100207047C36AB3F1F9
:10271000C07F24D000207047B2F5005F09D0022BA3
:1027200025D9032B25D1C36A13F0807F23D1002044
:102730007047032B03D8DFE803F01404140A0020C9
:102740007047C36A13F0807F0DD100207047C36AC1
:10275000B3F1C07F09D000207047012070470120ED
:102760007047012070470120704701207047012009
:1027700070470020704701207047000070B5044684
:10278000FFF76EFD002C5BD00546022384F8353040
:10279000002384F834302268136823F001031360A7
:1027A00023681A6812F0010F0AD0FFF759FD431B86
:1027B000052BF5D920236365032084F8350070BD0F
:1027C0001A68204810406168A2680A43E1680A4319
:1027D00021690A4361690A43A1690A43E1690A431D
:1027E000216A0A430243616A04291ED01A602668DE
:1027F000756925F00705636A1D43042B07D1A36A99
:102800001D43E36A1BB12046FFF770FF90B9756165
:102810002046FFF749FFE26D3F239340836000208D
:102820006065012384F83530C9E7E16A206B014314
:102830000A43DBE740236365012084F83500BEE7E7
:102840000120BCE73F8010F038B50446856D90F854
:10285000340001282BD0012084F8340094F835008E
:10286000C0B2012804D0002384F83430022038BDDF
:10287000022084F83500002060652046FFF7FEFE48
:10288000E26D3F239340AB602268136843F0160368
:102890001360236C23B12268136843F008031360AC
:1028A0002268136843F0010313600020DFE7022071
:1028B000DDE770B50446866DFFF7D2FC94F835303D
:1028C000DBB2022B06D080236365002384F834300A
:1028D000012070BD05462268136823F016031360BB
:1028E0002268536923F080035361236CE3B12268AB
:1028F000136823F0080313602268136823F00103B0
:10290000136023681B6813F0010F11D0FFF7A8FCB8
:10291000431B052BF5D920236365032084F835007C
:10292000002384F83430D4E7A36C002BDFD1E3E735
:10293000E26D3F239340B360012384F835300020DB
:1029400084F83400C5E790F83530DBB2022B03D0B1
:102950008023436501207047052380F835300268E5
:10296000136823F00103136000207047F0B583B0B3
:10297000044600230193724B1D68724BA3FB05357F
:10298000AD0A876D3E68C26D08239340334210D074
:1029900003681A6812F0040F0BD01A6822F00402C0
:1029A0001A60C26D08239340BB60436D43F001037E
:1029B0004365E26D01239340334209D02268526996
:1029C00012F0800F04D0BB60636D43F002036365B7
:1029D000E26D04239340334209D02268126812F05A
:1029E000020F04D0BB60636D43F004036365E26DC6
:1029F00010239340334224D02268126812F0080F4B
:102A00001FD0BB6023681A6812F4802F0DD01B689A
:102A100013F4002F04D1236C9BB12046984710E09B
:102A2000A36C73B1204698470BE01A6812F4807FBC
:102A300003D11A6822F008021A60236C0BB12046F9
:102A40009847E26D20239340334255D022681268A4
:102A500012F0100F50D0BB6094F83530DBB2052B6C
:102A60000ED023681A6812F4802F33D01B6813F439
:102A7000002F2AD1636C002B3ED0204698473BE0C4
:102A80002268136823F0160313602268536923F049
:102A900080035361236CA3B12268136823F00803F9
:102AA0001360E26D3F239340BB60012384F835300F
:102AB000002384F83430236D002B3FD02046984704
:102AC0003CE0A36C002BE7D1EBE7E36BA3B120461E
:102AD000984711E01A6812F4807F09D11A6822F031
:102AE00010021A60012384F83530002384F8343052
:102AF000E36B0BB120469847636DFBB1636D13F038
:102B0000010F17D0052384F835302268136823F0AD
:102B100001031360019B01330193AB4204D8236886
:102B20001B6813F0010FF5D1012384F83530002321
:102B300084F83430E36C0BB12046984703B0F0BD05
:102B400000000020B5814E1B00230F2B00F2D28025
:102B500070B582B060E085685E000324B44025EA69
:102B60000405CC68B4402C438460456825EA02051E
:102B70004C68C4F300129A402A4342605AE0DC08D1
:102B8000083450F8246003F0070295000F22AA4091
:102B900026EA020E0A69AA4042EA0E0240F8242000
:102BA0005CE0042200E0002202FA0EF22A43023422
:102BB000514D45F82420514A94686FEA0C0224EAEA
:102BC0000C054E6816F4801F01D04CEA04054B4CEE
:102BD000A560E46802EA04054E6816F4001F01D0FF
:102BE0004CEA0405454CE560646802EA04054E6859
:102BF00016F4003F01D04CEA0405404C656024689F
:102C000022404D6815F4803F01D04CEA04023B4C51
:102C1000226001330F2B6BD801229A400C6804EA22
:102C2000020C32EA0404F4D14C6804F00304013CC1
:102C3000012C90D94A6802F00302032A09D0C46823
:102C40005D000322AA4024EA02048A68AA402243C3
:102C5000C2604A6802F00302022A90D004684FEA78
:102C6000430E032202FA0EF224EA02044A6802F03A
:102C7000030202FA0EF2224302604A6812F4403F55
:102C8000C7D0002201921E4A546C44F4804454641C
:102C9000526C02F480420192019A9C08A51C164ACB
:102CA00052F8255003F003024FEA820E0F2202FA77
:102CB0000EF225EA0205134A90423FF474AF02F582
:102CC000806290420ED002F5806290420CD002F5F4
:102CD000806290420AD002F5806290423FF461AF78
:102CE000072261E701225FE702225DE703225BE73B
:102CF00002B070BD704700BF00380140003C014089
:102D000000380240000002400AB1816170470904A6
:102D10008161704703685A6912F4806F01D1002005
:102D200070476FF480625A6100230363202280F8A9
:102D30003D2080F83E30026C42F00402026480F8CC
:102D40003C30012070472DE9F04106460C461746FD
:102D500098463BE0FFF784FA069BC01A404502D82C
:102D6000B8F1000F32D1012D18D033689B6924EAE5
:102D700003039BB2B3FA83F35B099F4226D100237E
:102D80003363202286F83D2086F83E30326C42F0D4
:102D90002002326486F83C30012027E033685B690A
:102DA00024EA03039BB2B3FA83F35B09E5E73368D4
:102DB0005B6924EA030C1FFA8CFCBCFA8CFC4FEA1A
:102DC0005C1C674511D1B8F1FF3FC3D1C4F307457F
:102DD000012DECD033689B6924EA030C1FFA8CFCAC
:102DE000BCFA8CFC4FEA5C1CEBE70020BDE8F081EC
:102DF0002DE9F84305460E469046994653E01A6879
:102E000042F400721A602B686FF480625A610023EA
:102E10002B63202285F83D2085F83E302A6C42F055
:102E200004022A6485F83C3001204AE0FFF718FAD2
:102E3000A0EB0900404502D8B8F1000F33D1012FB3
:102E400017D02B689B6926EA03039BB2003B18BF8F
:102E5000012343B300232B63202285F83D2085F80E
:102E60003E302A6C42F020022A6485F83C30012072
:102E700027E02B685B6926EA03039BB2003B18BF7F
:102E80000123E6E72B689C6926EA0404A4B2003C0F
:102E900018BF0124A4B12B685A6912F4806FAED117
:102EA000B8F1FF3FC2D1C6F30747012FEAD12B6823
:102EB0005C6926EA0404A4B2003C18BF0124E9E7D7
:102EC0000020BDE8F88370B504460D461646236819
:102ED0005B6913F0800F21D12046FFF71BFFF8B983
:102EE000B5F1FF3FF3D0FFF7BBF9801BA84201D833
:102EF000002DECD123685B6913F0800FE7D100232C
:102F00002363202284F83D2084F83E30226C42F076
:102F10002002226484F83C30012000E0002070BDD3
:102F20000120FCE72DE9F04784B004460D46164623
:102F300099460C9FDDF834800268136843F480637F
:102F400013600368196841F480711960CDF800803E
:102F50003B4600224FF00111FFF7F5FE70B95FFA12
:102F600085FA236805F0FE051D6143463A4641494E
:102F70002046FFF73DFF68B1012008E023681B6889
:102F800013F4807F02D04FF400732364032004B055
:102F9000BDE8F0870023039323685A6903929B6975
:102FA0000393039B424639462046FFF78CFF80B9C6
:102FB000B9F1010F18D12368F6B21E6142463946B5
:102FC0002046FFF780FF68B3236C042B24D0012038
:102FD000DDE7236C042B01D00120D8E722681368B9
:102FE00043F400731360F7E72368320A1A6142461C
:102FF00039462046FFF767FF18B92368F6B21E610D
:10300000DCE7236C042B01D00120C0E722681368A1
:1030100043F400731360F7E72268136843F4007306
:103020001360D4E72268136843F480731360CDF80B
:1030300000803B4600224FF001112046FFF783FE3F
:1030400068B922684AF00103136143463A460949C8
:103050002046FFF7CDFE002899D0012097E723688E
:103060001B6813F4807F02D04FF4007323640320A5
:103070008DE700BF0200010070B504460D461646FC
:1030800014E06FF010025A6100232363202284F8B9
:103090003D2084F83E30226C226484F83C300120CC
:1030A00025E023685B6913F0400F10D0236858694E
:1030B00010F0400F1AD1586910F0100FE1D1FFF74E
:1030C000CFF8801BA842ECD8002DEFD1E9E7002310
:1030D0002363202284F83D2084F83E30226C42F0A5
:1030E0002002226484F83C30012000E0002070BD02
:1030F000002800F0CC8070B5044690F83D30002BDD
:1031000077D0242384F83D302268136823F001032C
:1031100013602268136843F4004313602268136845
:1031200023F40043136000F041FD62685A4B9A4259
:1031300064D85A4B98428CBF00230123002B40F0E7
:10314000A8805749A1FB00318B0C25686A6822F0E2
:103150003F0242EA91426A6021680A6A22F03F0215
:1031600066684D4DAE424FD8013313430B62216860
:10317000CA6922F44F4222F0FF026668464B9E4223
:103180004CD8431E7600B3FBF6F3013340F6FC70D7
:10319000034278D0C3F30B031343CB6121680B6860
:1031A00023F0C003E269206A024313430B602168E5
:1031B0008B6823F4034323F0FF032269E068024392
:1031C00013438B602168CB6823F0FF036269A06919
:1031D00002431343CB602268136843F0010313607A
:1031E00000202064202384F83D30206384F83E00D2
:1031F00070BD80F83C30FEF773FA82E7294B9842A5
:103200008CBF0023012399E74FF4967505FB03F368
:10321000254DA5FB03539B090133A6E7A368BBB962
:10322000451E06EB460CB5FBFCF50135C5F30B0559
:10323000B5FA85F56D0945BBC3B9013806EB460300
:10324000B0FBF3F30133C3F30B0343F40043A3E7F1
:10325000451E06EB860C0CEB8C0CB5FBFCF5013522
:10326000C5F30B05B5FA85F56D09E4E7013806EB02
:10327000860303EB8303B0FBF3F30133C3F30B03C8
:1032800043F4404388E7042386E7012384E70120D1
:1032900070470120ACE700BFA08601007F841E00BC
:1032A00083DE1B43FF083D00D34D62102DE9F04340
:1032B00087B004460F4690469946109EFEF7D0FF11
:1032C000054694F83D00C0B2202804D002273846B5
:1032D00007B0BDE8F08300951923012288492046F4
:1032E000FFF731FD002840F04D8194F83C30012B70
:1032F00000F04A81012384F83C3023681A6812F0F8
:10330000010F03D11A6842F001021A6022681368A3
:1033100023F400631360222384F83D30402384F8B3
:103320003E30002323640E9B6362BDF83C3063850E
:10333000638D2385734BE362019500964B464246AD
:1033400039462046FFF7EEFD0746002840F01E8173
:10335000238D5BB9029323685A6902929A6902929B
:10336000029A1A6842F400721A6075E0012B0AD0C2
:10337000022B1AD00023059323685A6905929B6992
:103380000593059B68E02268136823F4806313604B
:103390000023039323685A6903929A690392039A5C
:1033A0001A6842F400721A6056E02268136823F427
:1033B000806313602268136843F400631360002382
:1033C000049323685A6904929B690493049B43E025
:1033D0002A4631462046FFF74FFE002840F0D880AD
:1033E00023681A69636A1A70636A01336362238D02
:1033F000013B2385638D9BB2013B9BB263852BE030
:1034000000953346002240492046FFF79CFC0028E7
:1034100040F0C0802268136843F40073136023688F
:103420001A69636A1A70626A531C6362238D013BD6
:103430002385638D9BB2013B9BB2638523681B6927
:103440005370636A01336362238D013B2385638D6F
:103450009BB2013B9BB26385238D002B00F08980DA
:10346000032B53D8012BB3D0022BC9D00095334680
:10347000002225492046FFF766FC002840F08C809A
:103480002268136823F48063136023681A69636AEF
:103490001A70636A01336362238D013B2385638D58
:1034A0009BB2013B9BB263850095334600221649CF
:1034B0002046FFF748FC002870D12268136843F4C7
:1034C0000073136023681A69636A1A70626A531C76
:1034D0006362238D013B2385638D9BB2013B9BB2CD
:1034E000638523681B695370636A01336362238DAC
:1034F000013B2385638D9BB2013B9BB26385ABE7A8
:10350000020010000000FFFF040001002A463146BF
:103510002046FFF7B1FD002842D123681A69636A8B
:103520001A70636A01336362228D013A92B2228576
:10353000638D9BB2013B9BB263852368596911F08F
:10354000040F89D0032A0FD023681A69636A1A709E
:10355000636A01336362238D013B2385638D9BB2D4
:10356000013B9BB2638577E71A6822F480621A6098
:10357000EAE7202384F83D30002384F83E3084F8C5
:103580003C30A4E60227A2E60227A0E601279EE639
:1035900001279CE601279AE6012798E6012796E68F
:1035A000012794E6002800F0E08170B582B004465F
:1035B000036813F0010F3BD09F4B9B6803F00C0393
:1035C000042B2CD09C4B9B6803F00C03082B21D0C0
:1035D0006368B3F5803F4FD0B3F5A02F52D0964B20
:1035E0001A6822F480321A601A6822F480221A6063
:1035F0006368002B50D0FEF733FE05468E4B1B68E8
:1036000013F4003F14D1FEF72BFE401B6428F5D9BC
:103610000320B1E1884B5B6813F4800FD8D0864B50
:103620001B6813F4003F03D06368002B00F09F81F8
:10363000236813F0020F54D07F4B9B6813F00C0FDC
:103640003ED07D4B9B6803F00C03082B33D0E3681E
:10365000002B68D0794B01221A60FEF701FE054667
:10366000754B1B6813F0020F54D1FEF7F9FD401B98
:103670000228F5D903207FE16F4A136843F48033B1
:103680001360B5E76C4B1A6842F480221A601A681E
:1036900042F480321A60ABE7FEF7E2FD0546664B66
:1036A0001B6813F4003FC3D0FEF7DAFD401B64280B
:1036B000F5D9032060E1604B5B6813F4800FC6D13D
:1036C0005D4B1B6813F0020F03D0E368012B40F041
:1036D0005081594A136823F0F803216943EAC10372
:1036E0001360236813F0080F42D063696BB3534B28
:1036F0000122C3F8802EFEF7B3FD05464E4B5B6FEB
:1037000013F0020F34D1FEF7ABFD401B0228F5D9B0
:10371000032031E1484A136823F0F803216943EAA2
:10372000C1031360DDE7454B00221A60FEF798FDE8
:103730000546414B1B6813F0020FD2D0FEF790FDF7
:10374000401B0228F5D9032016E13C4B0022C3F8A8
:10375000802EFEF785FD0546374B5B6F13F0020F99
:1037600006D0FEF77DFD401B0228F5D9032003E1BA
:10377000236813F0040F77D02F4B1B6C13F0805F7E
:1037800033D1002301932C4B1A6C42F080521A64FF
:103790001B6C03F080530193019B0125284B1B6890
:1037A00013F4807F23D0A368012B34D0052B38D0AD
:1037B000214B1A6F22F001021A671A6F22F00402DD
:1037C0001A67A368002B3DD0FEF74AFD06461A4B48
:1037D0001B6F13F0020F46D1FEF742FD801B41F232
:1037E00088339842F3D90320C6E00025D6E7144A6F
:1037F000136843F480731360FEF732FD0646104BE6
:103800001B6813F4807FCED1FEF72AFD801B0228AF
:10381000F5D90320B0E0084A136F43F001031367A2
:10382000CFE7054B1A6F42F004021A671A6F42F095
:1038300001021A67C5E700BF003802400000474296
:1038400000700040FEF70CFD0646524B1B6F13F054
:10385000020F08D0FEF704FD801B41F28833984226
:10386000F3D9032088E0EDB9A369002B00F0838031
:10387000484A926802F00C02082A51D0022B17D055
:10388000454B00221A66FEF7EBFC0446414B1B68D1
:1038900013F0007F42D0FEF7E3FC001B0228F5D9AD
:1038A000032069E03B4A136C23F080531364DBE789
:1038B000394B00221A66FEF7D3FC0546354B1B68D0
:1038C00013F0007F06D0FEF7CBFC401B0228F5D991
:1038D000032051E0E369226A1343626A43EA8213D8
:1038E000A26A5208013A43EA0243E26A43EA0263E7
:1038F000284A5360284B01221A66FEF7B1FC0446A1
:10390000244B1B6813F0007F06D1FEF7A9FC001BB7
:103910000228F5D903202FE000202DE000202BE025
:10392000012B2BD01B4B5B6803F48001E2699142B1
:1039300026D103F03F02216A8A4223D1616A47F609
:10394000C0721A40B2EB811F1ED103F44031A26A4B
:103950005208013AB1EB024F18D103F07063E26AEA
:10396000B3EB026F14D1002006E001207047012064
:1039700002E0012000E0002002B070BD0120FBE762
:103980000120F9E70120F7E70120F5E70120F3E73F
:103990000120F1E7003802400000474208B5254BFE
:1039A0009B6803F00C03042B3FD0082B3FD1214B25
:1039B0005A6802F03F025B6813F4800F12D01D4B6F
:1039C0005968C1F388111C480023A1FB0001FDF7D1
:1039D000F3F8184B5B68C3F3014301335B00B0FBA2
:1039E000F3F025E0134B5968C1F3881C4FEA4C11E2
:1039F000B1EB0C006EEB0E0E4FEA8E1343EA9063B0
:103A00008101091A63EB0E03DB0043EA5173C9001D
:103A100011EB0C0C43F10003990200234FEA8C20B8
:103A200041EA9C51FDF7C8F8D3E7034800E003489A
:103A300008BD00BF00380240001BB7000024F4009E
:103A4000002800F09B8070B50D4604464F4B1B6864
:103A500003F007038B4208D2CBB24C4A13701368B1
:103A600003F007038B4240F08B80236813F0020FB2
:103A700017D013F0040F04D0454A936843F4E05381
:103A80009360236813F0080F04D0414A936843F40D
:103A9000604393603E4A936823F0F003A1680B43B0
:103AA0009360236813F0010F32D06368012B21D09B
:103AB0009A1E012A25D9364A126812F0020F61D0E7
:103AC00033498A6822F0030213438B60FEF7C8FB78
:103AD00006462F4B9B6803F00C036268B3EB820F22
:103AE00016D0FEF7BDFB801B41F288339842F0D917
:103AF000032042E0264A126812F4003FE0D1012080
:103B00003BE0234A126812F0007FD9D1012034E053
:103B10001E4B1B6803F00703AB4207D9EAB21B4BED
:103B20001A701B6803F00703AB422DD1236813F012
:103B3000040F06D0164A936823F4E053E1680B4360
:103B40009360236813F0080F07D0114A936823F499
:103B50006043216943EAC1039360FFF71FFF0C4BE9
:103B60009B68C3F303130B4AD35CD8400A4B18601D
:103B70000A4B1868FDF720FF002070BD0120704738
:103B80000120FAE70120F8E70120F6E7003C0240B7
:103B9000003802401CE4000800000020080000205B
:103BA000014B1868704700BF0000002008B5FFF700
:103BB000F7FF044B9B68C3F38223034AD35CD840CE
:103BC00008BD00BF003802402CE4000808B5FFF72C
:103BD000E7FF044B9B68C3F34233034AD35CD840EE
:103BE00008BD00BF003802402CE400080F2303602A
:103BF0000B4B9A6802F0030242609A6802F0F002EE
:103C000082609A6802F4E052C2609B68DB0803F4A9
:103C1000E0530361034B1B6803F007030B6070471D
:103C200000380240003C024070B4036A026A22F08D
:103C3000010202624668826922F073020C6844EA5B
:103C4000020523F002028B6813430D4CA04209D0F9
:103C50000B4CA0420DD0466085614A684263036206
:103C600070BC704723F00803CA68134323F00403B1
:103C7000EEE726F440764A6932438E691643EAE756
:103C80000000014030B4036A026A22F480720262CA
:103C90004568C26922F073020C68224323F4007362
:103CA0008C6843EA04230F4CA04209D00D4CA0427B
:103CB0000ED04560C2614A68C263036230BC70477F
:103CC00023F40063CC6843EA042323F48063EDE724
:103CD00025F440554C6945EA04158C6945EA0415FC
:103CE000E7E700BF0000014030B4036A026A22F433
:103CF000805202624468C26922F4E6420D6842EAD8
:103D0000052223F400538D6843EA0533074DA8428A
:103D100006D04460C2614A680264036230BC7047E6
:103D200024F480444D6944EA8514F2E70000014020
:103D300010B4036A046A24F001040462846924F064
:103D4000F00C4CEA021223F00A030B438261036277
:103D50005DF8044B704710B4036A046A24F0100441
:103D60000462846924F4704C4CEA023223F0A0030C
:103D700043EA0113826103625DF8044B7047836874
:103D800023F070030B4343F0070383607047000088
:103D900090F83D30DBB2012B2AD1022380F83D3070
:103DA0000368154A934218D0B3F1804F15D0A2F59D
:103DB0007C42934211D002F5806293420DD002F50D
:103DC0008062934209D002F59A32934205D01A6874
:103DD00042F001021A60002070479A6802F0070260
:103DE000062A07D01A6842F001021A6000207047C4
:103DF00001207047002070470000014090F83D30DE
:103E0000DBB2012B2FD1022380F83D300268D3684A
:103E100043F00103D3600368154A934218D0B3F10D
:103E2000804F15D0A2F57C42934211D002F58062FA
:103E300093420DD002F58062934209D002F59A3286
:103E4000934205D01A6842F001021A6000207047C0
:103E50009A6802F00702062A07D01A6842F00102A7
:103E60001A6000207047012070470020704700BF93
:103E700000000140704770477047704770B50446B6
:103E80000368DE681D6915F0020F10D016F0020FEE
:103E90000DD06FF002021A610123037703689B695A
:103EA00013F0030F5ED0FFF7E6FF0023237715F032
:103EB000040F12D016F0040F0FD023686FF0040225
:103EC0001A610223237723689B6913F4407F4FD044
:103ED0002046FFF7D0FF0023237715F0080F12D0FC
:103EE00016F0080F0FD023686FF008021A61042340
:103EF00023772368DB6913F0030F40D02046FFF7D8
:103F0000BAFF0023237715F0100F12D016F0100F10
:103F10000FD023686FF010021A61082323772368FB
:103F2000DB6913F4407F31D02046FFF7A4FF002364
:103F3000237715F0010F02D016F0010F2DD115F0E7
:103F4000800F02D016F0800F2FD115F0400F02D055
:103F500016F0400F31D115F0200F02D016F0200FCF
:103F600033D170BDFFF786FF2046FFF785FF9CE742
:103F70002046FFF77FFF2046FFF77EFFABE7204696
:103F8000FFF778FF2046FFF777FFBAE72046FFF7F5
:103F900071FF2046FFF770FFC9E723686FF0010249
:103FA0001A612046FDF75AFCC9E723686FF08002CA
:103FB0001A61204600F027FAC7E723686FF0400235
:103FC0001A612046FFF759FFC5E723686FF020020A
:103FD0001A61204600F016FAC3E700000368274A7A
:103FE00090420ED0B0F1804F0BD0A2F57C429042AF
:103FF00007D002F58062904203D002F580629042C1
:1040000003D123F070034A6813431C4A90421AD02C
:10401000B0F1804F17D0A2F57C42904213D002F548
:10402000806290420FD002F5806290420BD002F580
:104030009A32904207D002F58062904203D002F596
:104040008062904203D123F44073CA68134323F083
:1040500080034A6913438A68C2620A688262074A17
:10406000904207D0026842F00402026001224261DD
:10407000036070470A690263F4E700BF0000014073
:1040800040B310B5044690F83D30F3B1022384F8F4
:104090003D30214651F8040BFFF7A0FF012384F8BF
:1040A000463084F83E3084F83F3084F8403084F85D
:1040B000413084F8423084F8433084F8443084F846
:1040C000453084F83D30002010BD80F83C30FDF7CD
:1040D000BBFDDBE70120704740B310B5044690F804
:1040E0003D30F3B1022384F83D30214651F8040BF2
:1040F000FFF774FF012384F8463084F83E3084F8DB
:104100003F3084F8403084F8413084F8423084F8FD
:10411000433084F8443084F8453084F83D30002042
:1041200010BD80F83C30FDF7A5FDDBE701207047AE
:1041300030B4036A026A22F01002026244688269A3
:1041400022F4E6420D6842EA052223F020038D683E
:1041500043EA05130E4DA84209D00D4DA8420ED0DA
:10416000446082614A688263036230BC704723F016
:104170008003CD6843EA051323F04003EDE724F400
:1041800040644D6944EA85048D6944EA8504E7E7A3
:104190000000014038B590F83C30012B66D0044651
:1041A0000D46012380F83C300C2A5AD8DFE802F093
:1041B000075959591B5959593059595944000068E0
:1041C000FFF732FD2268936943F008039361226888
:1041D000936923F0040393612268936929690B436F
:1041E000936100203EE00068FFF7A2FF2268936918
:1041F00043F4006393612268936923F480639361BD
:1042000022689369296943EA01239361002029E028
:104210000068FFF737FD2268D36943F00803D361D4
:104220002268D36923F00403D3612268D369296922
:104230000B43D361002015E00068FFF755FD2268AD
:10424000D36943F40063D3612268D36923F48063A4
:10425000D3612268D369296943EA0123D36100202D
:1042600000E00120002384F83C3038BD0220FCE748
:1042700010B4846824F47F4C42EA03220A4342EAE1
:104280000C0282605DF8044B704790F83C30012BC3
:1042900078D010B50446012380F83C30022380F822
:1042A0003D300268936823F47F4323F077039360E3
:1042B0000B68602B4CD029D8402B54D00CD9502BF4
:1042C00022D1CA6849680068FFF732FD5021206892
:1042D000FFF755FD002005E0202B0DD009D9302B2C
:1042E0000AD00120012384F83D30002384F83C30BB
:1042F00010BD0BB1102B05D119462068FFF73FFD0B
:104300000020EFE70120EDE70120EBE7B3F5805F48
:1043100034D0B3F5005F0CD1CB684A688968006877
:10432000FFF7A6FF2268936843F480439360002060
:10433000D8E7702B24D1CB684A6889680068FFF7FA
:1043400097FF2268936843F0770393600020C9E7E2
:10435000CA6849680068FFF7FEFC60212068FFF723
:104360000EFD0020BEE7CA6849680068FFF7E0FC60
:1043700040212068FFF703FD0020B3E70020B1E7EC
:104380000120AFE70220704790F83C30012B35D078
:1043900010B4012380F83C30022380F83D300368DC
:1043A0005A689C6822F0700C0A6842EA0C025A6053
:1043B0000368134A934212D0B3F1804F0FD0A2F595
:1043C0007C4293420BD002F58062934207D002F503
:1043D0008062934203D002F59A32934204D124F0D2
:1043E00080044A6814439C60012380F83D30002318
:1043F00080F83C3018465DF8044B70470220704747
:104400000000014070477047026802F10C0353E856
:10441000003F23F0C0030C3242E800310029F3D101
:10442000202380F841307047026802F10C0353E802
:10443000003F23F490730C3242E800310029F3D19D
:10444000026802F1140353E8003F23F00103143221
:1044500042E800310029F3D1036B012B05D0202362
:1044600080F84230002303637047026802F10C03B6
:1044700053E8003F23F010030C3242E800310029DA
:10448000F3D1ECE790F84130DBB2212B01D00220D0
:1044900070478368B3F5805F17D0036A5A1C0262C5
:1044A0001A7803685A60C38C9BB2013B9BB2C384E9
:1044B0004BB90268D36823F08003D3600268D368E5
:1044C00043F04003D360002070470369002BE4D120
:1044D000036A1B880268C3F308035360036A02334C
:1044E0000362E0E738B504460268136923F44053D9
:1044F000C1680B4313618368026913434269134324
:10450000C2691A430168CB6823F4164323F00C03F5
:104510001343CB600268536923F4407381690B43F2
:1045200053610368314A934206D002F58062934298
:1045300002D0FFF73BFB01E0FFF748FBE369B3F56F
:10454000004F29D00021031849411B1841F10001F7
:10455000C90041EA5371DB00181863684FEA83020F
:104560004FEA937341F10001FCF726FB204DA5FBB8
:1045700000325109642303FB11031B013233A5FBF5
:1045800003235B0903F0F00202EB011203F00F03B7
:10459000216813448B6038BD0023021843EB0301EC
:1045A000121841F10001C90041EA5271D2001018FD
:1045B00041F10001626892185B41FCF7FDFA0C4D75
:1045C000A5FB00325109642303FB1103DB003233E6
:1045D000A5FB03235B095A0002F4F87202EB0112F7
:1045E00003F00703216813448B60D4E700100140F7
:1045F0001F85EB5160B310B5044690F8413013B3FA
:10460000242384F841302268D36823F40053D36014
:104610002046FFF767FF2268136923F49043136174
:104620002268536923F02A0353612268D36843F454
:104630000053D36000206064202384F8413084F864
:104640004230606310BD80F84030FDF755FCD7E77D
:104650000120704738B5134690F84120D2B2202A85
:1046600036D10446002935D00BB9012031E0016272
:104670008384C38400224264212084F84100A06B1B
:10468000154DC563A06B154D0564A06B144DC56435
:10469000A06B026522680432A06BFEF7D5F830B13A
:1046A00010236364202384F84130012011E0236843
:1046B0006FF040021A60226802F1140353E8003FD1
:1046C00043F08003143242E800310029F3D100E0C6
:1046D000022038BD0120FCE7E54600084D470008F0
:1046E0005D47000808B50346806B1B681B6813F420
:1046F000807F1AD10023C384026802F1140353E8B7
:10470000003F23F08003143242E800310029F3D146
:10471000026802F10C0353E8003F43F040030C32FF
:1047200042E800310029F3D108BD03F0A7FCFBE704
:1047300008B50168CA6822F04002CA60202280F8E9
:10474000412003F09BFC002008BD704708B5806B3A
:10475000FFF7FBFF08BD70477047704710B5846BCB
:1047600023685A6994F84130DBB2212B10D02368BA
:104770005A6902F0400294F84230DBB2222B11D089
:10478000636C43F0100363642046FFF7E6FF10BD3F
:1047900002F08002002AEAD00023E3842046FFF7DB
:1047A00033FEE4E7002AEBD00023E3852046FFF741
:1047B0003BFEE5E708B5806B0023C385FFF7CDFF1F
:1047C00008BD90F84230DBB2222B69D18368B3F583
:1047D000805F4FD0826AB3F5805F04D0002B56D142
:1047E0000369002B53D103685B681370836A01333C
:1047F0008362C38D9BB2013B9BB2C385002B51D119
:1048000000B583B00268D36823F02003D360026848
:10481000D36823F48073D3600268536923F00103E3
:104820005361202380F8423000234363036B012B44
:1048300033D100230363026802F10C0353E8003F05
:1048400023F010030C3242E800310029F3D1036851
:104850001A6812F0100F06D0002201921A68019215
:104860005B680193019B818D03F0DCFB002003B0AA
:104870005DF804FB0269002AACD1826A03685B68B8
:10488000C3F308031380836A02338362B1E70368CA
:104890005B6803F07F031370A8E7FFF75CFFE5E7B1
:1048A000022070470020704730B583B0044602688C
:1048B0001368D068516913F00F0505D113F0200F6C
:1048C00002D010F0200F19D12DB111F0010119D132
:1048D00010F4907F16D1216B01297DD013F0800F49
:1048E00003D010F0800F40F0268113F0400F03D06A
:1048F00010F0400F40F0238103B030BD2046FFF799
:1049000060FFF9E713F0010F06D010F4807F03D0A9
:10491000626C42F00102626413F0040F04D019B11A
:10492000626C42F00202626413F0020F04D019B10B
:10493000626C42F00402626413F0080F07D010F0BA
:10494000200F00D119B1626C42F008026264626CFF
:10495000002AD1D013F0200F02D010F0200F29D15F
:1049600023685B6903F04003626C12F0080F00D10A
:1049700063B32046FFF758FD23685B6913F0400FCF
:1049800020D0226802F1140353E8003F23F04003D3
:10499000143242E800310029F3D1E36B73B16A4A63
:1049A0001A65E06BFDF7CFFF0028A5D0E06B036D23
:1049B0009847A1E72046FFF704FFD1E72046FFF71D
:1049C000CCFE99E72046FFF7C8FE95E72046FFF7A3
:1049D000C4FE002363648FE713F0100F3FF47EAF33
:1049E00010F0100F3FF47AAF002301931368019386
:1049F00053680193019B536913F0400F5FD0E26B42
:104A000013685B689BB2002B4AD0A18D994247D9AD
:104A1000E385D369B3F5807F37D0226802F10C03B8
:104A200053E8003F23F480730C3242E80031002940
:104A3000F3D1226802F1140353E8003F23F001038D
:104A4000143242E800310029F3D1226802F1140344
:104A500053E8003F23F04003143242E800310029BC
:104A6000F3D1202384F8423000232363226802F12B
:104A70000C0353E8003F23F010030C3242E80031EE
:104A80000029F3D1E06BFDF714FF02236363A18DCE
:104A9000E38D9BB2C91A89B2204603F0C3FA2BE713
:104AA000A18D99427FF428AFD369B3F5807F7FF45D
:104AB00023AF02236363204603F0B4FA1CE7A18D01
:104AC000E38D9BB2C91A89B2E38D9BB2002B3FF4F0
:104AD00013AF00293FF410AF226802F10C0353E832
:104AE000003F23F490730C3242E800300028F3D1E9
:104AF000226802F1140353E8003F23F0010314324B
:104B000042E800300028F3D1202384F8423000230B
:104B10002363226802F10C0353E8003F23F01003E3
:104B20000C3242E800300028F3D1022363632046B0
:104B300003F078FAE0E62046FFF7A4FCDCE6204626
:104B4000FFF7F6FDD8E600BFB547000808B5806B53
:104B500001234363036B012B02D0FFF7FDFD08BD6A
:104B6000818D490803F05EFAF9E708B50346806BCA
:104B70001B681B6813F4807F2BD10023C385026858
:104B800002F10C0353E8003F23F480730C3242E837
:104B900000310029F3D1026802F1140353E8003F09
:104BA00023F00103143242E800310029F3D10268F6
:104BB00002F1140353E8003F23F04003143242E8AB
:104BC00000310029F3D1202380F84230036B012B00
:104BD00007D000234363036B012B0FD0FFF7BBFD0E
:104BE00008BD026802F10C0353E8003F23F01003F4
:104BF0000C3242E800310029F3D1EAE7818D03F05D
:104C000011FAEDE730B583B0044613468162828520
:104C100000224264222084F84200E06B244DC563E8
:104C2000E06B244D0564E06B234DC564E06B0265C9
:104C300020680A46011DE06BFDF706FE00282FD113
:104C40000023019323681A6801925B680193019B1A
:104C500023695BB1226802F10C0353E8003F43F47F
:104C600080730C3242E800310029F3D1226802F14E
:104C7000140353E8003F43F00103143242E80031CB
:104C80000029F3D1226802F1140353E8003F43F0F6
:104C90004003143242E800310029F3D103B030BDA3
:104CA00010236364202384F842300120F6E700BF1C
:104CB0006B4B00084D4B00085D47000890F84230F0
:104CC000DBB2202B27D110B582B0044629B312B92C
:104CD000012002B010BD0123036300234363FFF7EB
:104CE00091FF236B012B01D00120F2E700230193F8
:104CF00023681A6801925B680193019B226802F1A4
:104D00000C0353E8003F43F010030C3242E800313B
:104D10000029F3D1DDE7022070470120D9E784287C
:104D200001D0033070470020704708B501F0A8F9A2
:104D3000002008BD2DE9F04387B004460F464569C1
:104D4000BDB18669AEB1D0F80480D0F80090B0F95A
:104D50000800FFF7E4FF0296019500903B462269A8
:104D60004946404601F01CF90590059807B0BDE89A
:104D7000F08365682668D4F81080B4F90800FFF75E
:104D8000CEFF05AB019300903B461FFA88F23146F7
:104D9000284601F040F90128E7D00020E6E700F1BD
:104DA000080343604FF0FF328260C3600361002359
:104DB0000360704700230361704743684B609A6843
:104DC0008A6051609960086103680133036070472D
:104DD00030B40D68B5F1FF3F11D000F108031C4657
:104DE0005B681A68AA42FAD963684B6099608C6064
:104DF0006160086103680133036030BC7047046977
:104E0000F2E70369416882688A60416851605A68C4
:104E1000824206D0002202611A68013A1A601868BC
:104E2000704782685A60F5E782B0002301930D4B0A
:104E30001B68B3F1FF3F08D04FF0500383F3118894
:104E4000BFF36F8FBFF34F8FFEE74FF0500383F335
:104E50001188BFF36F8FBFF34F8F019B002BFCD0E6
:104E600002B070470C00002008480068006880F31A
:104E700008884FF0000080F3148862B661B6BFF373
:104E80004F8FBFF36F8F00DF00BF000008ED00E021
:104E9000DFF80C00016841F4700101607047000008
:104EA00088ED00E04FF0807340F8043C21F00101F0
:104EB00040F8081C054B40F80C3C40F8202C6FF0E3
:104EC000020340F8243C4438704700BF294E0008D4
:104ED000074B19680868B0E8F04F80F30988BFF302
:104EE0006F8F4FF0000080F311887047AFF30080A0
:104EF000E89E00204FF0500383F31188BFF36F8FBB
:104F0000BFF34F8F0B4A136801331360012B00D09E
:104F100070474FF0E023D3F8043D13F0FF0FF7D0B4
:104F20004FF0500383F31188BFF36F8FBFF34F8FA0
:104F3000FEE700BF0C000020094B1B6843B94FF08F
:104F4000500383F31188BFF36F8FBFF34F8FFEE7DA
:104F5000013B034A13600BB983F31188704700BF0C
:104F60000C00002000000000000000000000000015
:104F7000EFF30980BFF36F8F154B1A681EF0100F07
:104F800008BF20ED108A20E9F04F10602DE90900DC
:104F90004FF0500080F31188BFF34F8FBFF36F8F36
:104FA00001F0DEF94FF0000080F3118809BC1968A8
:104FB0000868B0E8F04F1EF0100F08BFB0EC108A80
:104FC00080F30988BFF36F8F704700BFAFF3008095
:104FD000E89E002008B54FF0500383F31188BFF31B
:104FE0006F8FBFF34F8F01F08DF828B14FF0E023A2
:104FF0004FF08052C3F8042D002383F3118808BDBD
:105000004FF0E022002313619361054B1B680549B3
:10501000A1FB03139B09013B5361072313617047F5
:1050200000000020D34D62104FF0E023D3F8002D94
:105030003D4B9A421CD04FF0E023D3F8002D3B4B60
:105040009A421ED030B583B0394B1A78D2B2019251
:10505000FF221A701B78DBB28DF803309DF8033005
:1050600003F05003334A1370334B07221A601BE0DE
:105070004FF0500383F31188BFF36F8FBFF34F8F4F
:10508000FEE74FF0500383F31188BFF36F8FBFF338
:105090004F8FFEE7284A1368013B13609DF80330E9
:1050A0005B00DBB28DF803309DF8033013F0800F06
:1050B000F0D1214B1B68032B08D04FF0500383F332
:1050C0001188BFF36F8FBFF34F8FFEE71B021A4AA1
:1050D000136003F4E0631360019BDBB2144A1370A6
:1050E0004FF0E024D4F8203D43F47003C4F8203D91
:1050F000D4F8203D43F07043C4F8203DFFF780FF13
:1051000000250E4B1D60FFF7C3FED4F8343F43F07B
:105110004043C4F8343FFFF7A7FE01F021F9FFF741
:1051200083FE284603B030BD71C20F4170C20F41EB
:1051300000E400E020120020241200200C000020D7
:10514000EFF305830F2B0FD9114A9B5CDBB2114A99
:1051500012789A4208D94FF0500383F31188BFF3B5
:105160006F8FBFF34F8FFEE74FF0E023D3F80C3D76
:1051700003F4E063084A1268934208D94FF05003E1
:1051800083F31188BFF36F8FBFF34F8FFEE7704734
:10519000F0E300E02012002024120020134A12F055
:1051A000070F1FD0D11D21F00701C1F50C43A0331B
:1051B00013440A460E480260002141601344083B34
:1051C00023F007030B48036059601960991A516076
:1051D0001360094B1960094B1960094B4FF00042ED
:1051E0001A60704748F6A043E4E700BF2C12002085
:1051F000E09E002028120020D49E0020D09E002097
:10520000CC9E0020164B1A461B688342FBD3516884
:1052100002EB010C844509D0416800EB010C6345A9
:1052200009D00360904219D0106070474068014473
:1052300051601046F0E710B40A4C2468A3420BD02A
:105240005B681944416013681B680360904200D09A
:1052500010605DF8044B70470460F7E7704700BFCB
:10526000E09E00202812002070B5054600F042FFA5
:10527000364B1B68A3B1364B1B681D424ED135B16E
:10528000083515F0070F02D025F007050835002D69
:1052900046D0304B1B68AB4251D32F4A146804E010
:1052A000FFF77CFFE7E722461C466368AB4202D269
:1052B0002368002BF7D1254B1B68A34241D0166809
:1052C00008362368136063685B1B102B10D96019C4
:1052D00010F0070F08D04FF0500383F31188BFF38D
:1052E0006F8FBFF34F8FFEE743606560FFF78AFF64
:1052F000626818490B689B1A0B60184909688B4251
:1053000001D216490B60124B1B68134363600023E4
:105310002360134A13680133136002E0002600E0A3
:10532000002600F07BFF16F0070F0CD04FF0500363
:1053300083F31188BFF36F8FBFF34F8FFEE7002613
:10534000EFE70026EDE7304670BD00BF28120020D1
:10535000CC9E0020D09E0020E09E0020D49E002005
:10536000D89E0020002834D038B50446A0F10805A6
:1053700050F8043C174A1268134208D14FF050030A
:1053800083F31188BFF36F8FBFF34F8FFEE750F8A1
:10539000081C41B14FF0500383F31188BFF36F8FA6
:1053A000BFF34F8FFEE723EA020340F8043C00F00E
:1053B000A1FE54F8041C084A13680B4413602846E5
:1053C000FFF720FF054A13680133136000F026FF42
:1053D00038BD7047CC9E0020D09E0020DC9E00206F
:1053E0000346406A18B11B6B1868C0F1070070478C
:1053F00010B50446FFF77EFDA26BE36B9A4204D022
:105400000024FFF799FD204610BD0124F9E710B5EF
:105410000446FFF76FFDA36B23B90124FFF78CFD52
:10542000204610BD0024F9E770B504461546866B8A
:10543000026C5AB903681BB100200136A66370BD27
:10544000806801F0F1F80023A360F6E76DB94068C9
:10545000FBF734FD226C636813446360A2689342D7
:1054600019D3236863602846E7E7C068FBF726FD89
:10547000226C5142E3689B1AE3602268934202D295
:10548000A3680B44E360022D01D00020D5E726B1CC
:10549000013E0020D1E72846CFE70020CDE770B5D8
:1054A00082B00190846C64B1A26BE36B9A4211D319
:1054B0004FF0500383F31188BFF36F8FBFF34F8F0B
:1054C000FEE74FF0500383F31188BFF36F8FBFF3F4
:1054D0004F8FFEE7A26B934203D80025284602B007
:1054E00070BD94F8456076B2002201A92046FFF70E
:1054F0009BFF0546B6F1FF3F04D0731C5BB284F8F6
:105500004530EBE7636A002BE8D004F1240000F09B
:105510008BFF0028E2D00125E0E70346026C6AB168
:1055200010B50846D9681144D9609C68A14201D3DE
:105530001968D960D968FBF7C1FC10BD704738B550
:105540000546FFF7D7FC95F8454064B208E06B6A62
:10555000B3B105F1240000F067FF70B9013C64B2FB
:10556000002C0DDDAB6C002BF1D02846FFF797FF28
:105570000028F3D000F0ECFFF0E700F0E9FFEDE7E2
:10558000FF2385F84530FFF7D7FCFFF7B3FC95F80C
:10559000444064B201E0013C64B2002C0ADD2B6996
:1055A00043B105F1100000F03FFF0028F3D000F0F8
:1055B000CFFFF0E7FF2385F84430FFF7BDFC38BD8F
:1055C00038B5E0B10D460446FFF794FC2368E26B62
:1055D000216C01FB0230A0600020A0636360013AEF
:1055E00002FB0133E360FF2384F8443084F8453044
:1055F000FDB9236963B9FFF79FFC012038BD4FF067
:10560000500383F31188BFF36F8FBFF34F8FFEE713
:1056100004F1100000F008FF0028ECD04FF0E02368
:105620004FF08052C3F8042DBFF34F8FBFF36F8F3D
:10563000E1E704F11000FFF7B2FB04F12400FFF7EB
:10564000AEFBD8E710B5029C0B4649B92460E06375
:10565000236401212046FFF7B3FF0023A36410BD9C
:105660002260F4E740B94FF0500383F31188BFF391
:105670006F8FBFF34F8FFEE7F0B583B00D46144632
:10568000064601FB00F04C30FFF7EEFD074650B137
:10569000002380F846300090234600F14C02294652
:1056A0003046FFF7CFFF384603B0F0BDF0B585B008
:1056B000019288B10F461D460446B1B1022D20D19A
:1056C000E36B012B1DD04FF0500383F31188BFF320
:1056D0006F8FBFF34F8FFEE74FF0500383F31188B6
:1056E000BFF36F8FBFF34F8FFEE7036C002BE5D046
:1056F0004FF0500383F31188BFF36F8FBFF34F8FC9
:10570000FEE700F02BFF064658B9019B002B5ED048
:105710004FF0500383F31188BFF36F8FBFF34F8FA8
:10572000FEE7002653E0A66B2A4639462046FFF7DF
:105730007BFEA36CABB1022D00D16EB92046FFF702
:10574000AEFE48B14FF0E0234FF08052C3F8042D75
:10575000BFF34F8FBFF36F8FFFF7EEFB012005B054
:10576000F0BD636A63B90028F6D04FF0E0234FF034
:105770008052C3F8042DBFF34F8FBFF36F8FEBE759
:1057800004F1240000F050FE0028E5D04FF0E023A3
:105790004FF08052C3F8042DBFF34F8FBFF36F8FCC
:1057A000DAE7FFF7C9FB0020D9E702A800F082FE84
:1057B000012619E0002384F8443021E0002384F816
:1057C000453023E02046FFF7BAFE00F027FDFFF743
:1057D00091FBA26BE36B9A42A5D3022DA3D0019B50
:1057E000002BDED0002EE0D0FFF7A6FB00F082FCFD
:1057F000FFF780FB94F8442052B2B2F1FF3FD9D0BA
:1058000094F8452052B2B2F1FF3FD7D0FFF794FB96
:1058100001A902A800F05AFED8B92046FFF7E8FD1A
:105820000028CFD0019904F1100000F0E5FD2046DA
:10583000FFF785FE00F0F2FC0028C8D14FF0E0230E
:105840004FF08052C3F8042DBFF34F8FBFF36F8F1B
:10585000BDE72046FFF773FE00F0E0FC00207EE786
:1058600068B170B50D460446036C8BB14FF0500320
:1058700083F31188BFF36F8FBFF34F8FFEE74FF0B5
:10588000500383F31188BFF36F8FBFF34F8FFEE791
:105890000368EBB1FFF754FCEFF311864FF05003B0
:1058A00083F31188BFF36F8FBFF34F8FA26BE36B4E
:1058B000934230D994F845305BB20132A263B3F120
:1058C000FF3F11D001335BB284F84530012023E063
:1058D0008368002BDED04FF0500383F31188BFF3B1
:1058E0006F8FBFF34F8FFEE7A36C3BB12046FFF7EE
:1058F000D6FDA0B1ADB1012028600DE0636A0BB9FF
:10590000012009E004F1240000F08EFD58B165B1DA
:105910000120286000E0002086F3118870BD01207E
:10592000FAE70120F8E70120F6E70120F4E7F0B5F7
:1059300085B0019290B10F460446C1B100F00EFE51
:10594000064600BB019B002B5ED04FF0500383F353
:105950001188BFF36F8FBFF34F8FFEE74FF05003F7
:1059600083F31188BFF36F8FBFF34F8FFEE7036C94
:10597000002BE3D04FF0500383F31188BFF36F8FF8
:10598000BFF34F8FFEE700263EE039462046FFF783
:10599000C4FD013DA563236923B9FFF7CDFA0120BA
:1059A00005B0F0BD04F1100000F03EFD0028F4D079
:1059B0004FF0E0234FF08052C3F8042DBFF34F8F18
:1059C000BFF36F8FE9E7FFF7B7FA0020E8E702A817
:1059D00000F070FD012621E0002384F8443029E026
:1059E000002384F845302BE02046FFF7A8FD00F0A7
:1059F00015FC09E02046FFF7A2FD00F00FFC204651
:105A0000FFF705FD00283FD1FFF774FAA56B002DC5
:105A1000BBD1019B002BD6D0002ED8D0FFF78CFA3B
:105A200000F068FBFFF766FA94F844305BB2B3F11C
:105A3000FF3FD1D094F845305BB2B3F1FF3FCFD0F8
:105A4000FFF77AFA01A902A800F040FD0028D1D1A1
:105A50002046FFF7DCFC0028C6D0019904F12400A1
:105A600000F0CAFC2046FFF76AFD00F0D7FB0028D3
:105A7000CAD14FF0E0234FF08052C3F8042DBFF39A
:105A80004F8FBFF36F8FBFE7002089E770B584B0F9
:105A9000019158B10446036C8BB14FF0500383F36E
:105AA0001188BFF36F8FBFF34F8FFEE74FF05003A6
:105AB00083F31188BFF36F8FBFF34F8FFEE700F0C2
:105AC0004DFD054650B9019B5BB14FF0500383F388
:105AD0001188BFF36F8FBFF34F8FFEE70026354667
:105AE00055E0064653E0013BA36323683BB12369BD
:105AF0004BB9FFF721FA0126304604B070BD00F023
